{
  "nlocktime": "100000",
  "accounts": [
    {
      "name": "wokashiwallet",
      "tx_id": "94c0c8221642995f48f7ca824ef9aa05f0d300d7fe0f4976b71770b62a36242b",
      "tx_index": 1,
      "tx_sig": "",
      "pubkey": "0379da593c71cbef20dba128614fd84dc5cb1ac6561750eb74174bfbd31f77dc39",
      "privkey": "cNRmZ9QJimDt57pKsy1XpQmujQRJsYHxtCNC59FLvgk36rNExuDF",
      "revoke_pubkey": "024ed5b451dce6bfccd0640fe15c6c4f6739d3809df0b706e7710ff5e60f525ed8",
      "revoke_privkey": "cNTke5LWotLAr6EEjTdmKNKRtkTpV3qtiqy9zaB5K8JJr3jmh8eL",
      "address": "tb1qa545afnl4aw9tjqevxkc8v9zgvhe629v8k46uc",
      "value": "10000",
      "prev_tx_payload": "02000000000102ce92aaee0cd1272ca1fa74d55012032de3b78e6ae1fdca700b836bc2fc7f66cc0000000000feffffffac2dbc265118a106eba640434f6be58e4986aae9be2221e7da402dbd3b5b87460000000000feffffff02b024000000000000160014e94471b3edbee2017c39207e0143a0bd7114b4a93075000000000000160014ed2b4ea67faf5c55c81961ad83b0a2432f9d28ac02473044022015b45304a3e812aecf1e85a252a9911ba518cb705342fc0451d01d041b4454a002200e31693b77ed949106d6dd1986162199138e4460ef935dac463e7d6b2c892c9e01210379da593c71cbef20dba128614fd84dc5cb1ac6561750eb74174bfbd31f77dc39024730440220509eaa25434fbc818ff211467c6bc9cdba610a3ffa6e3b381e588b6a209fffc702201ba850a341ee874dba9d7fe5410c48f328684b7b5d443050cffd196733f9c61501210379da593c71cbef20dba128614fd84dc5cb1ac6561750eb74174bfbd31f77dc39a4071d00"
    },
    {
      "name": "wallet2",
      "tx_id": "52f8aa9c2890e813fa3b04be24bd1f83bf3bc3bd6bd052539a227e26303bf5a9",
      "tx_index": 0,
      "tx_sig": "",
      "pubkey": "02f1bb45e8d1d0c03f8698f0586c310008bc46966e58f63fa94458cc6454140946",
      "privkey": "cP6Jg7fBb249eLPSCz6awj4t8wW6RSGWquLaqsfZKd2sikFCVVJP",
      "revoke_pubkey": "02828ac4399564a076b8bff34d7ee0e8804877d2fb4e12413d94603b46d329818c",
      "revoke_privkey": "cSpYmR7dDs8iWHW4wcBnCFpVqqeethuwfb52inUEpdy2msWQp8gu",
      "address": "tb1q8nek2g3lyppxzd9v3l87etu0u0auapnmw20r92",
      "value": "10000",
      "prev_tx_payload": "02000000000101332c6427f0647ed5c2a5df1ad7f6bffad19c2ef763e03846d279fa49e70168b00100000000feffffff0230750000000000001600143cf365223f20426134ac8fcfecaf8fe3fbce867b389d12000000000016001458fcf4ba6c6f839d96fa7b26010152e7cd534f160247304402207c843b3c3c4debb92734a3824fa489be0649c2c9eb0eccd7d0503135a36908d102206081a8b4bf448e66b50f359a5d267a44273d01ffdbf7b979fec0039fe5cd15a30121020ff8cc881e4335ed015db01d1b69ed78ca6157665c40cb949587baf789bba94ba4071d00"
    },
    {
      "name": "wallet3",
      "tx_id": "931c77c70270d3c1af2aaa6dfc47ea08ecd1564196eb6c697903a78b5ee3888d",
      "tx_index": 1,
      "tx_sig": "",
      "pubkey": "0370eb926c63aeef661d1e7ef0dabff7858271af483453b86e89a42789f5214b97",
      "privkey": "cURGM86HY5D56PZyKraLWQj9RMafENsQgAz3N5Q2je52NLWAV4s4",
      "revoke_pubkey": "03d27b6e431a9c024748843a45497b609d10c094997af5cd9317810bb22c2527b6",
      "revoke_privkey": "cUd2JM2HquyBJ3ChmJrTppALZ2jB6EaYUq5pKDuaQJRew8kCFXGU",
      "address": "tb1qrjh60km96xn2rgy7cqp3na6p430t8svvnjp7mu",
      "value": "10000",
      "prev_tx_payload": "020000000001015258df55ce53cf1b42a7b6ca2a843a453105e9f25b3d3d330fad5ba3a91d94150000000000feffffff0241f30100000000001600141bb51e42e2ea2a9f9418f6cb3ea7cdce6b07451b30750000000000001600141cafa7db65d1a6a1a09ec00319f741ac5eb3c18c0247304402205a4375fad38e4628284913598f2cb0d9c62316e071835bc9f246a1a3e7b439d2022010f3fa229d1fee7b7072efcaf07fef9fcae5e9cc9c792addd893ec3421159d850121022abe3ac8045a9495b93861c45692d0949c2099d4ecb14911456c524738aaf418a4071d00"
    },
    {
      "name": "wokashi4",
      "tx_id": "36d6cd169c77f7ca3f39ccc5552ddd0b06a635721a566eba0ec9d3c87565319c",
      "tx_index": 1,
      "tx_sig": "",
      "pubkey": "0370eb926c63aeef661d1e7ef0dabff7858271af483453b86e89a42789f5214b97",
      "privkey": "cURGM86HY5D56PZyKraLWQj9RMafENsQgAz3N5Q2je52NLWAV4s4",
      "revoke_pubkey": "03d27b6e431a9c024748843a45497b609d10c094997af5cd9317810bb22c2527b6",
      "revoke_privkey": "cUd2JM2HquyBJ3ChmJrTppALZ2jB6EaYUq5pKDuaQJRew8kCFXGU",
      "address": "tb1qrjh60km96xn2rgy7cqp3na6p430t8svvnjp7mu",
      "value": "10000",
      "prev_tx_payload": "020000000001011ad4e6b2043e1d1fe1ab071d28524795e69508fde206c5e655e6efdb17eb0f240100000000feffffff02e31001000000000016001422e0a992219a8902e308ce2ba05ba11b0bed6a4d30750000000000001600142e148fdc684b9b06f808bb944005ffa0bb16d74c02473044022035787e113bdb51aad1980b3d1f4d5541338cff455a51158121422028082522560220323c87fad23a5d07bec91a71848d9dd576411398a7a80e501767d5cddd8067650121027ec983146b472406b33b451c82bc798cd2c4f80fa3515309720645ca43be126919061d00"
    }
  ]
}