{
  "nlocktime": "100000",
  "accounts": [
    {
      "name": "wokashiwallet",
      "tx_id": "69840f07d474252659ff38e1ac50c7ab877bb6799bc4694a4c576dfa767153d7",
      "tx_index": 1,
      "tx_sig": "",
      "pubkey": "0379da593c71cbef20dba128614fd84dc5cb1ac6561750eb74174bfbd31f77dc39",
      "privkey": "cNRmZ9QJimDt57pKsy1XpQmujQRJsYHxtCNC59FLvgk36rNExuDF",
      "revoke_pubkey": "024ed5b451dce6bfccd0640fe15c6c4f6739d3809df0b706e7710ff5e60f525ed8",
      "revoke_privkey": "cNTke5LWotLAr6EEjTdmKNKRtkTpV3qtiqy9zaB5K8JJr3jmh8eL",
      "address": "tb1qa545afnl4aw9tjqevxkc8v9zgvhe629v8k46uc",
      "value": "10000",
      "prev_tx_payload": "0200000000010264d948648828cf0386d3f845c50cb50989be12431fb1989dd0501ad4096ef89d0100000000feffffffa4b81da6622ac70eac7660b7497f6290a9ad94fd285d8dcc6f0f69476a9090320000000000feffffff02a20c00000000000016001445dde0fd9a09265e522ef0b965e2a3dc5a074fb03075000000000000160014ed2b4ea67faf5c55c81961ad83b0a2432f9d28ac024730440220393f8ff8a50117ec2464cdb677194a4d5770e63ab8661a49366b651096a68b620220060fc057c8858417af82acd19ca2fbc46f3a053663f76fa81e593a365b13af04012103816a697303d5b81a56746d932a81b5bb51ed7ea4b57f5554baf9a1d0b670fb890247304402200ca8e88473a8ca57824d5ddc1048a9fde2061f541393d91e2502102a34e266f9022032f43f5387d44806009fae6941e5fd019b24976c8814507a7e755035e60cba3401210379da593c71cbef20dba128614fd84dc5cb1ac6561750eb74174bfbd31f77dc39a4071d00"
    },
    {
      "name": "wallet2",
      "tx_id": "365cc673094d8154dafda1a4a4c3095809bd67c2c21fd4f32ee90e0f788d2dd6",
      "tx_index": 0,
      "tx_sig": "",
      "pubkey": "02f1bb45e8d1d0c03f8698f0586c310008bc46966e58f63fa94458cc6454140946",
      "privkey": "cP6Jg7fBb249eLPSCz6awj4t8wW6RSGWquLaqsfZKd2sikFCVVJP",
      "revoke_pubkey": "02828ac4399564a076b8bff34d7ee0e8804877d2fb4e12413d94603b46d329818c",
      "revoke_privkey": "cSpYmR7dDs8iWHW4wcBnCFpVqqeethuwfb52inUEpdy2msWQp8gu",
      "address": "tb1q8nek2g3lyppxzd9v3l87etu0u0auapnmw20r92",
      "value": "10000",
      "prev_tx_payload": "02000000000101a9f53b30267e229a5352d06bbdc33bbf831fbd24be043bfa13e890289caaf8520100000000feffffff0230750000000000001600143cf365223f20426134ac8fcfecaf8fe3fbce867b7b27120000000000160014f5d9f34556cbdaf842f85a1a36a21fabb0ea51a80247304402206a060b2530acbfab1ce81f3ebba278c996b481930a6452a3c1845a448f165882022021d2c3658e969369b3e9c6e4acf2b0d40be5d3e1a15aff7c6dcb8e0f87a0537801210310456825476c16bad3f87a3453e2f640c0244047de9c5913b0df617b605fa1aca4071d00"
    },
    {
      "name": "wallet3",
      "tx_id": "0d474bc7678efed89396819b7d75d4927a8dd73f885752b6d917de635044e9d1",
      "tx_index": 1,
      "tx_sig": "",
      "pubkey": "0370eb926c63aeef661d1e7ef0dabff7858271af483453b86e89a42789f5214b97",
      "privkey": "cURGM86HY5D56PZyKraLWQj9RMafENsQgAz3N5Q2je52NLWAV4s4",
      "revoke_pubkey": "03d27b6e431a9c024748843a45497b609d10c094997af5cd9317810bb22c2527b6",
      "revoke_privkey": "cUd2JM2HquyBJ3ChmJrTppALZ2jB6EaYUq5pKDuaQJRew8kCFXGU",
      "address": "tb1qrjh60km96xn2rgy7cqp3na6p430t8svvnjp7mu",
      "value": "10000",
      "prev_tx_payload": "020000000001017ccc0808db6b72eafbecf0af602d33b1ac2caafa1ee39e989820f884b75c153b0100000000feffffff02181e00000000000016001456c18fc32599e05fbde3997535f0420ef89f566c30750000000000001600141cafa7db65d1a6a1a09ec00319f741ac5eb3c18c0247304402202c397400f76980b9c4d6195459eae693b74ca7759948370b4cd4679d457d1da902205443b424d448bc6f0c309149e8a3f6728cadf88fa8c51560b6e93349b4124f3f012103716712a54dc582157733110b9174395000adb9efd9ab666264d901fcdb6b4b2fa4071d00"
    }
  ]
}