{
  "nlocktime": "100000",
  "accounts": [
    {
      "name": "wokashiwallet",
      "tx_id": "39472207e2f16e8c683630d58203d5ae7370227529908d1c9b52d397b8ff0f46",
      "tx_index": 1,
      "tx_sig": "",
      "pubkey": "0379da593c71cbef20dba128614fd84dc5cb1ac6561750eb74174bfbd31f77dc39",
      "privkey": "cNRmZ9QJimDt57pKsy1XpQmujQRJsYHxtCNC59FLvgk36rNExuDF",
      "revoke_pubkey": "024ed5b451dce6bfccd0640fe15c6c4f6739d3809df0b706e7710ff5e60f525ed8",
      "revoke_privkey": "cNTke5LWotLAr6EEjTdmKNKRtkTpV3qtiqy9zaB5K8JJr3jmh8eL",
      "address": "tb1qa545afnl4aw9tjqevxkc8v9zgvhe629v8k46uc",
      "value": "10000",
      "prev_tx_payload": "020000000001024b2b98fa8ddb17272133c576c1de0d1d43247997f10caca2fa05391c856473980000000000feffffff91e9d2346988c78c2843a5f3bc4f0c69fb52eac782c4cc63b3fcf33c4990672a0000000000feffffff02640700000000000016001457dc1462538af5ed6c8570791bddca78f64a73003075000000000000160014ed2b4ea67faf5c55c81961ad83b0a2432f9d28ac0247304402202056a7719370dc8a978e676388c437c169a70ea1a51456e3b772e3cbe39aaaca02206e06d6108a6d7e33b9f38d549af722aa413ce25bcb73907a508750eb1649aa9f01210379da593c71cbef20dba128614fd84dc5cb1ac6561750eb74174bfbd31f77dc390247304402204ad8569f593180546d3f7477fd3f74292a03eb064a2cace61faf88341f2c261f02206a2124c88346062f233a9897bf9f6bc2453e4b442fc446472f1ba47e845159a501210379da593c71cbef20dba128614fd84dc5cb1ac6561750eb74174bfbd31f77dc39a4071d00"
    },
    {
      "name": "wallet2",
      "tx_id": "39f625a437918cbaf02021d693f1456517e9b179ae6b572b1eb34d3899c8049c",
      "tx_index": 1,
      "tx_sig": "",
      "pubkey": "02f1bb45e8d1d0c03f8698f0586c310008bc46966e58f63fa94458cc6454140946",
      "privkey": "cP6Jg7fBb249eLPSCz6awj4t8wW6RSGWquLaqsfZKd2sikFCVVJP",
      "revoke_pubkey": "02828ac4399564a076b8bff34d7ee0e8804877d2fb4e12413d94603b46d329818c",
      "revoke_privkey": "cSpYmR7dDs8iWHW4wcBnCFpVqqeethuwfb52inUEpdy2msWQp8gu",
      "address": "tb1q8nek2g3lyppxzd9v3l87etu0u0auapnmw20r92",
      "value": "10000",
      "prev_tx_payload": "02000000000101f39f72d2fa0fa3782e403f7cb27f0b35bdf9129e6e8a821607eb4de829030e190000000000feffffff0276bb1c00000000001600144b31d1abc1ccb72623c48ebeb6093bfe0c3fd85030750000000000001600143cf365223f20426134ac8fcfecaf8fe3fbce867b0247304402205d7d4f0d91c926e3bf31a09b315151506a7ac3a238ee1523ddc69bbe38f5232202201c38bdd68a79ac482e988b8482a7ae335955d9bbca89738140b437a85c0aa12c012103678a49de1bbdbfb8da01e753db5a2863286e168df4e58bb86586a6ff47c62fa3a4071d00"
    },
    {
      "name": "wallet3",
      "tx_id": "e53dac2244c1a30ed3fd4e6a508107bf3e2b61bef9633f63c63907c5072c7998",
      "tx_index": 0,
      "tx_sig": "",
      "pubkey": "0370eb926c63aeef661d1e7ef0dabff7858271af483453b86e89a42789f5214b97",
      "privkey": "cURGM86HY5D56PZyKraLWQj9RMafENsQgAz3N5Q2je52NLWAV4s4",
      "revoke_pubkey": "03d27b6e431a9c024748843a45497b609d10c094997af5cd9317810bb22c2527b6",
      "revoke_privkey": "cUd2JM2HquyBJ3ChmJrTppALZ2jB6EaYUq5pKDuaQJRew8kCFXGU",
      "address": "tb1qrjh60km96xn2rgy7cqp3na6p430t8svvnjp7mu",
      "value": "10000",
      "prev_tx_payload": "02000000000102dbc6415ee1519228974ddf24951bb7df6fea8356d4b0b1f2dc13c2bd6d4b5d990200000000feffffffb8ce99b1f59f06fc3deb3d5714cebd9661337c866c21a95714dafdd5391120870100000000feffffff0230750000000000001600141cafa7db65d1a6a1a09ec00319f741ac5eb3c18c884c0000000000001600146225cfc5cb03733e5c271c035949983b6708aa610247304402202df9d596d1a129cad29d30e5572928dd0c64d59bbbc8cfdcff933a85581fa60f02200745f8d5eec85ac9e809c9fab87b91f843364145c84ead5aeb7fce3dc3e4fd49012102da535d863aff818b6dfb3743be31b78bd897db308243a150f31dede8f5ea9d230247304402205b2cb6a65e5424cb331571cfb74ff99860140245ce2d9825c325f2e6986c27440220053a59dabdcd759d23b1976e48028f1fcaf5f371e19343b681d07bc0174eaa82012102da535d863aff818b6dfb3743be31b78bd897db308243a150f31dede8f5ea9d2363071d00"
    }
  ]
}