{
  "nlocktime": "100000",
  "accounts": [
    {
      "name": "wokashiwallet",
      "tx_id": "f8930e86040d06f660773d03ba6e914b2593d1a706772c8a237bf86f920998f4",
      "tx_index": 1,
      "tx_sig": "",
      "pubkey": "0379da593c71cbef20dba128614fd84dc5cb1ac6561750eb74174bfbd31f77dc39",
      "privkey": "cNRmZ9QJimDt57pKsy1XpQmujQRJsYHxtCNC59FLvgk36rNExuDF",
      "revoke_pubkey": "024ed5b451dce6bfccd0640fe15c6c4f6739d3809df0b706e7710ff5e60f525ed8",
      "revoke_privkey": "cNTke5LWotLAr6EEjTdmKNKRtkTpV3qtiqy9zaB5K8JJr3jmh8eL",
      "address": "tb1qa545afnl4aw9tjqevxkc8v9zgvhe629v8k46uc",
      "value": "10000",
      "prev_tx_payload": "020000000001029aa16131359218b56887fcb6531563b970d96f6fed90716d1b6c0c2041ca61720100000000feffffffaceb6ddd9a07659860671c1bfa15b2bbd422675c46e639f517549a8cef9076540100000000feffffff026074000000000000160014f867ebfb5681d71062bd737f064bab52283da7f93075000000000000160014ed2b4ea67faf5c55c81961ad83b0a2432f9d28ac02473044022011da874b09b63c916e61711345f1bf1df61cfb709a0e14cbd711b284fa8db5d50220464d858a00969b7065b7abc169aabf88f13973af211780bb0258c5442e73cdd901210379da593c71cbef20dba128614fd84dc5cb1ac6561750eb74174bfbd31f77dc39024730440220277041c6e3c675ce38cbbad1329f324e06ffb023a34031ed503973dd9e59258e02202f4e52e26edece7760bbef2834e361e35a65a431db62b63e8bf1a47ac702f1c401210379da593c71cbef20dba128614fd84dc5cb1ac6561750eb74174bfbd31f77dc39a4071d00"
    },
    {
      "name": "wallet2",
      "tx_id": "ace3c03933a5e20b641ffb08eabe9eb3447f25a4750a511c076a644952c0b1e5",
      "tx_index": 0,
      "tx_sig": "",
      "pubkey": "02f1bb45e8d1d0c03f8698f0586c310008bc46966e58f63fa94458cc6454140946",
      "privkey": "cP6Jg7fBb249eLPSCz6awj4t8wW6RSGWquLaqsfZKd2sikFCVVJP",
      "revoke_pubkey": "02828ac4399564a076b8bff34d7ee0e8804877d2fb4e12413d94603b46d329818c",
      "revoke_privkey": "cSpYmR7dDs8iWHW4wcBnCFpVqqeethuwfb52inUEpdy2msWQp8gu",
      "address": "tb1q8nek2g3lyppxzd9v3l87etu0u0auapnmw20r92",
      "value": "10000",
      "prev_tx_payload": "02000000000101c3e6d364d6b48fd8c68daf84ce3472faafe3a5d3250a2d86c303242c603cc9210000000000feffffff0230750000000000001600143cf365223f20426134ac8fcfecaf8fe3fbce867b63d515000000000016001483d62076892d424b2cd395aafca628788ff8163802473044022076c0ffd17e1fc06361c3b600b4aa14847237d498b9886cc465db66f8a09103ed022037c056b72c3c289cbf8899bf61aed892cb2acb78b555d114234b91cc4b252737012102204b38304907f8f8dd31f3cb65037a1a5116892e8f01a3dce85d643aedc1b69fa4071d00"
    },
    {
      "name": "wallet3",
      "tx_id": "4446e9ff5c3035dd1b934ba00212bfe33cada3ed50c9fb66d30869d9148365fb",
      "tx_index": 1,
      "tx_sig": "",
      "pubkey": "0370eb926c63aeef661d1e7ef0dabff7858271af483453b86e89a42789f5214b97",
      "privkey": "cURGM86HY5D56PZyKraLWQj9RMafENsQgAz3N5Q2je52NLWAV4s4",
      "revoke_pubkey": "03d27b6e431a9c024748843a45497b609d10c094997af5cd9317810bb22c2527b6",
      "revoke_privkey": "cUd2JM2HquyBJ3ChmJrTppALZ2jB6EaYUq5pKDuaQJRew8kCFXGU",
      "address": "tb1qrjh60km96xn2rgy7cqp3na6p430t8svvnjp7mu",
      "value": "10000",
      "prev_tx_payload": "02000000000101560399ee4cd317c2d2bfdb057bc6d5efc620e7fd83021e5e52bd45bc87784f000000000000feffffff0207f8130000000000160014a060c5bcb1a8e77a250d5b025ad1355c6ed9744b30750000000000001600141cafa7db65d1a6a1a09ec00319f741ac5eb3c18c0247304402205d155fb21890177d2e17a4dd250409a2dee6e863fa5431da1dddd7c33394757f0220744b61ddce254832e4dd4c342eb2aca01f2063922aae7b2dfc3d1127cbd84d3a012103472d37fd5830df64d3389dbb66111302aa36e3d56b117c647288dc5e219db30ba4071d00"
    }
  ]
}