{
  "nlocktime": "100000",
  "accounts": [
    {
      "name": "wokashiwallet",
      "tx_id": "afc8680dc05f7eebb9e4422e4b43964a5a057353ff11011fb0ec557f515356d3",
      "tx_index": 0,
      "tx_sig": "",
      "pubkey": "0379da593c71cbef20dba128614fd84dc5cb1ac6561750eb74174bfbd31f77dc39",
      "privkey": "cNRmZ9QJimDt57pKsy1XpQmujQRJsYHxtCNC59FLvgk36rNExuDF",
      "revoke_pubkey": "024ed5b451dce6bfccd0640fe15c6c4f6739d3809df0b706e7710ff5e60f525ed8",
      "revoke_privkey": "cNTke5LWotLAr6EEjTdmKNKRtkTpV3qtiqy9zaB5K8JJr3jmh8eL",
      "address": "tb1qa545afnl4aw9tjqevxkc8v9zgvhe629v8k46uc",
      "value": "10000",
      "prev_tx_payload": "02000000000102addedb3206a3a77d279c8d1c10bba205b8eab6574c6486c6b9f37f4b5ec53cde0000000000fefffffff7352df852b316d2481b46c05ef02120f2b1f4280ededb8b4625da45748638750000000000feffffff023075000000000000160014ed2b4ea67faf5c55c81961ad83b0a2432f9d28acb0240000000000001600144390a442aa85aa3ba656c2b9d2249090ab0749d30246304302206b63bc08596e9af1c618a13b6efda85c1ccf674cc2b1e206024782467694ac0e021f6aa80816fe5f98dd6e8020d65d2fa1b770c051797411c0a4fbb106863938c901210379da593c71cbef20dba128614fd84dc5cb1ac6561750eb74174bfbd31f77dc3902473044022017906bf3c4acaea519905de921b95b39ed1e4c94bbca866e13b01a271ad0e42302200e5cf3dc94cc32f434823d29aa933083403a05e955ee091d5eb4b23d545ffa5901210379da593c71cbef20dba128614fd84dc5cb1ac6561750eb74174bfbd31f77dc39a4071d00"
    },
    {
      "name": "wallet2",
      "tx_id": "21c93c602c2403c3862d0a25d3a5e3affa7234ce84af8dc6d88fb4d664d3e6c3",
      "tx_index": 1,
      "tx_sig": "",
      "pubkey": "02f1bb45e8d1d0c03f8698f0586c310008bc46966e58f63fa94458cc6454140946",
      "privkey": "cP6Jg7fBb249eLPSCz6awj4t8wW6RSGWquLaqsfZKd2sikFCVVJP",
      "revoke_pubkey": "02828ac4399564a076b8bff34d7ee0e8804877d2fb4e12413d94603b46d329818c",
      "revoke_privkey": "cSpYmR7dDs8iWHW4wcBnCFpVqqeethuwfb52inUEpdy2msWQp8gu",
      "address": "tb1q8nek2g3lyppxzd9v3l87etu0u0auapnmw20r92",
      "value": "10000",
      "prev_tx_payload": "020000000001012cd70fe0b9f7df819953742f5345b2813502747a9616ac28f98b105e24cfc6430000000000feffffff02204b1600000000001600148eaea5b99e93b7396c817bb4d5ee2ad50ec227ed30750000000000001600143cf365223f20426134ac8fcfecaf8fe3fbce867b0247304402202e254e5752c29aa6ab276c6ba73bf1db3d4e58ba412207e97a37849b36c703f6022024140e269cc7b16f5650b8caa047f277e92d16441e6b204d6e758c540b5093af012103b11c6453186f83dadd94c5738485fcb5e79587ef20fea28b90f8c134181dfcb5a4071d00"
    },
    {
      "name": "wallet3",
      "tx_id": "111cbf8813d89bb275c94f5de6ca937edf44e587a2b4eefe808fddcf89e0e7af",
      "tx_index": 0,
      "tx_sig": "",
      "pubkey": "0370eb926c63aeef661d1e7ef0dabff7858271af483453b86e89a42789f5214b97",
      "privkey": "cURGM86HY5D56PZyKraLWQj9RMafENsQgAz3N5Q2je52NLWAV4s4",
      "revoke_pubkey": "03d27b6e431a9c024748843a45497b609d10c094997af5cd9317810bb22c2527b6",
      "revoke_privkey": "cUd2JM2HquyBJ3ChmJrTppALZ2jB6EaYUq5pKDuaQJRew8kCFXGU",
      "address": "tb1qrjh60km96xn2rgy7cqp3na6p430t8svvnjp7mu",
      "value": "10000",
      "prev_tx_payload": "02000000000101fb658314d96908d366fbc950eda3ad3ce3bf1202a04b931bdd35305cffe946440000000000feffffff0230750000000000001600141cafa7db65d1a6a1a09ec00319f741ac5eb3c18c4a82130000000000160014d8cb88eb76668d6105faee45c35b03e6ae5549fd0247304402200a4f44be4d77558eed56ea570e2f067ff06e99a03efb27075bd2141e90d53db402205d913eefce7ccad94780b2ee4cf49a215a1a25e250a79867407825b5ffce46e1012102e677cbde107ffc32ee9320b1fbe01f53f9debea8b0c647630be5e34d1329af05a4071d00"
    }
  ]
}