{
  "nlocktime": "100000",
  "accounts": [
    {
      "name": "wokashiwallet",
      "tx_id": "544189ebb05760854a9c1c99b1fc715324b2c8b062241775cddcba95940269a7",
      "tx_index": 0,
      "tx_sig": "",
      "pubkey": "0379da593c71cbef20dba128614fd84dc5cb1ac6561750eb74174bfbd31f77dc39",
      "privkey": "cNRmZ9QJimDt57pKsy1XpQmujQRJsYHxtCNC59FLvgk36rNExuDF",
      "revoke_pubkey": "024ed5b451dce6bfccd0640fe15c6c4f6739d3809df0b706e7710ff5e60f525ed8",
      "revoke_privkey": "cNTke5LWotLAr6EEjTdmKNKRtkTpV3qtiqy9zaB5K8JJr3jmh8eL",
      "address": "tb1qa545afnl4aw9tjqevxkc8v9zgvhe629v8k46uc",
      "value": "10000",
      "prev_tx_payload": "0200000000010264d948648828cf0386d3f845c50cb50989be12431fb1989dd0501ad4096ef89d0000000000feffffff4797ffca09123cfddfad6322689c6f08a94238963a73a4fbc9431b06622b18830000000000feffffff023075000000000000160014ed2b4ea67faf5c55c81961ad83b0a2432f9d28ac60740000000000001600140458d4c3eb4ca21fe2d2f4215d664a38839509ad02473044022009e75a97786a5a7bfcb71a9611e074c33e432aeefc53333984eaa04d856e3378022076e1055e66d2a2cd28a6a134df74b85dc36aea1f61dd7867004019fffd92b44001210379da593c71cbef20dba128614fd84dc5cb1ac6561750eb74174bfbd31f77dc390247304402207f5a03e50eff59a56a3f5cf4b8cde689d38ecaf0b16a4caed4016d0fc1ab9bfd02201941a1465da97012b269681e483543c35d33f23b857ec77c378c213e8e85a1c801210379da593c71cbef20dba128614fd84dc5cb1ac6561750eb74174bfbd31f77dc39a4071d00"
    },
    {
      "name": "wallet2",
      "tx_id": "8f58ea983203656c9a24642cdf9be3619b6cbced9d3c259b437dddaa15db7dd4",
      "tx_index": 1,
      "tx_sig": "",
      "pubkey": "02f1bb45e8d1d0c03f8698f0586c310008bc46966e58f63fa94458cc6454140946",
      "privkey": "cP6Jg7fBb249eLPSCz6awj4t8wW6RSGWquLaqsfZKd2sikFCVVJP",
      "revoke_pubkey": "02828ac4399564a076b8bff34d7ee0e8804877d2fb4e12413d94603b46d329818c",
      "revoke_privkey": "cSpYmR7dDs8iWHW4wcBnCFpVqqeethuwfb52inUEpdy2msWQp8gu",
      "address": "tb1q8nek2g3lyppxzd9v3l87etu0u0auapnmw20r92",
      "value": "10000",
      "prev_tx_payload": "020000000001014333151270b0d82519d16cc8edf51eebdcdee1ef96a6072c93cbe2d6c722bb090000000000feffffff024b831900000000001600147544f9d0c31f612ec27b2847d78a530d89f4f70d30750000000000001600143cf365223f20426134ac8fcfecaf8fe3fbce867b024730440220372a9a93676524efde159fd4fb7feefc7ca4aad7e598ce349dc120ae18ff3e0a022046fa8ba645b5dc0a38e7eac4200783bdea6697c7339947d3121a5ac31ccc99cb012102a921222f7153420770a8983a4053536883d1037a82e7141e62f2734ec5b67e53a4071d00"
    },
    {
      "name": "wallet3",
      "tx_id": "0a2f7d6b45249dcaf3ef2ee17b76ff3deccf732203a79f716b4b3e1062d90fce",
      "tx_index": 0,
      "tx_sig": "",
      "pubkey": "0370eb926c63aeef661d1e7ef0dabff7858271af483453b86e89a42789f5214b97",
      "privkey": "cURGM86HY5D56PZyKraLWQj9RMafENsQgAz3N5Q2je52NLWAV4s4",
      "revoke_pubkey": "03d27b6e431a9c024748843a45497b609d10c094997af5cd9317810bb22c2527b6",
      "revoke_privkey": "cUd2JM2HquyBJ3ChmJrTppALZ2jB6EaYUq5pKDuaQJRew8kCFXGU",
      "address": "tb1qrjh60km96xn2rgy7cqp3na6p430t8svvnjp7mu",
      "value": "10000",
      "prev_tx_payload": "020000000001022d3009d3238a7cd5de06c37d645be14d5ae5c9de7f9591c5b8d71790ed254f190100000000feffffffc7e413305c9905aeb7385f97e37145b35f52b1c9609bbe4167f176826187ef170100000000feffffff0230750000000000001600141cafa7db65d1a6a1a09ec00319f741ac5eb3c18cd41e000000000000160014eab912a5b438036f370ee8a82b26988bed66608f0247304402201fc40f95b14a37e38f96941de5eec6ef151bba80e83aa630a7268fd3d7068a5802205a3eeda0c54f46841f8b5c1a03ea2fe87d8b578eaebba71eb8b53a21a06559f501210370eb926c63aeef661d1e7ef0dabff7858271af483453b86e89a42789f5214b970247304402205eb454cefba7f720db71aedaa1d17febd024b381741b599f7874f553a6cf943a02201f58b925e2553c8b79709cc61dbbfce985fdf57e913deed6805b418de83b248d0121030e5c029c89635acd9757b98233b9f16ace39407ea9073aea821f26eeac458c70a4071d00"
    }
  ]
}