{
  "nlocktime": "100000",
  "accounts": [
    {
      "name": "wokashiwallet",
      "tx_id": "37648d8bc118ce6b2252ab1495489ee5a8bf19e62de19f0d409e8e177be09541",
      "tx_index": 1,
      "tx_sig": "",
      "pubkey": "0379da593c71cbef20dba128614fd84dc5cb1ac6561750eb74174bfbd31f77dc39",
      "privkey": "cNRmZ9QJimDt57pKsy1XpQmujQRJsYHxtCNC59FLvgk36rNExuDF",
      "revoke_pubkey": "024ed5b451dce6bfccd0640fe15c6c4f6739d3809df0b706e7710ff5e60f525ed8",
      "revoke_privkey": "cNTke5LWotLAr6EEjTdmKNKRtkTpV3qtiqy9zaB5K8JJr3jmh8eL",
      "address": "tb1qa545afnl4aw9tjqevxkc8v9zgvhe629v8k46uc",
      "value": "10000",
      "prev_tx_payload": "02000000000102ce92aaee0cd1272ca1fa74d55012032de3b78e6ae1fdca700b836bc2fc7f66cc0000000000feffffffac2dbc265118a106eba640434f6be58e4986aae9be2221e7da402dbd3b5b87460000000000feffffff02b024000000000000160014e94471b3edbee2017c39207e0143a0bd7114b4a93075000000000000160014ed2b4ea67faf5c55c81961ad83b0a2432f9d28ac02473044022015b45304a3e812aecf1e85a252a9911ba518cb705342fc0451d01d041b4454a002200e31693b77ed949106d6dd1986162199138e4460ef935dac463e7d6b2c892c9e01210379da593c71cbef20dba128614fd84dc5cb1ac6561750eb74174bfbd31f77dc39024730440220509eaa25434fbc818ff211467c6bc9cdba610a3ffa6e3b381e588b6a209fffc702201ba850a341ee874dba9d7fe5410c48f328684b7b5d443050cffd196733f9c61501210379da593c71cbef20dba128614fd84dc5cb1ac6561750eb74174bfbd31f77dc39a4071d00"
    },
    {
      "name": "wallet2",
      "tx_id": "43c6cf245e108bf928ac16967a74023581b245532f74539981dff7b9e00fd72c",
      "tx_index": 1,
      "tx_sig": "",
      "pubkey": "02f1bb45e8d1d0c03f8698f0586c310008bc46966e58f63fa94458cc6454140946",
      "privkey": "cP6Jg7fBb249eLPSCz6awj4t8wW6RSGWquLaqsfZKd2sikFCVVJP",
      "revoke_pubkey": "02828ac4399564a076b8bff34d7ee0e8804877d2fb4e12413d94603b46d329818c",
      "revoke_privkey": "cSpYmR7dDs8iWHW4wcBnCFpVqqeethuwfb52inUEpdy2msWQp8gu",
      "address": "tb1q8nek2g3lyppxzd9v3l87etu0u0auapnmw20r92",
      "value": "10000",
      "prev_tx_payload": "020000000001019520142d97371fdade4293fb612becd290be53a5c751442779c26d1abbe548bf0100000000feffffff02ddc0160000000000160014d434008fb56f990fb595299b6e2e3040312cac3730750000000000001600143cf365223f20426134ac8fcfecaf8fe3fbce867b02473044022000a5dfc47c0834258d60c7fb1622a1a0255b378f16b43d835d24f9001b5782970220316b4a9a4922ca07581ebf498e30cb9bb86a02b1eac304173131c616dd253a6b01210369f214747019900a02f5213f27225f3e86c9c48e6159c0997fb06c2ff55549d5a4071d00"
    },
    {
      "name": "wallet3",
      "tx_id": "a3f99a2d7478b06457f2319ed70e2b76f16de4f2a4d4533e17991c7ad6a41b93",
      "tx_index": 0,
      "tx_sig": "",
      "pubkey": "0370eb926c63aeef661d1e7ef0dabff7858271af483453b86e89a42789f5214b97",
      "privkey": "cURGM86HY5D56PZyKraLWQj9RMafENsQgAz3N5Q2je52NLWAV4s4",
      "revoke_pubkey": "03d27b6e431a9c024748843a45497b609d10c094997af5cd9317810bb22c2527b6",
      "revoke_privkey": "cUd2JM2HquyBJ3ChmJrTppALZ2jB6EaYUq5pKDuaQJRew8kCFXGU",
      "address": "tb1qrjh60km96xn2rgy7cqp3na6p430t8svvnjp7mu",
      "value": "10000",
      "prev_tx_payload": "02000000000101a596de655b0641c1cae886182fd387ceba8355a6324a15a3780f23fa65e5d4d80000000000feffffff0230750000000000001600141cafa7db65d1a6a1a09ec00319f741ac5eb3c18c315a050000000000160014ba5163f7ee01d466264ab595a12092b2af2b0cca0247304402201207fe38f15eae8472f5fe7f3a5465f66339892f679c9d1dba30ad7f44757ee3022025d1a7bc9ff91b78215afcd3735b60798d02dd66f0b121a0cf24949061364a9e012103283c2b93d6b010158cdc84846367c245f411f3c944a1c9d25a861340ee0f09e1a4071d00"
    }
  ]
}